{
  "transactions": [
    {
      "hash": "0xe25b529e011b5bf88ab1b2462113ef862cdb15275c7685751dfaf9c227acdda8",
      "transactionType": "CALL",
      "contractName": null,
      "contractAddress": "0x8f8661038c85634619b668d2c747b96e32f104cb",
      "function": "executeUnlock(bytes32)",
      "arguments": [
        "0x25f3a13b154835222011dcad2c58f08b85f9961e7527ba4a35c81d067a79aa7c"
      ],
      "transaction": {
        "from": "0xe69bb031877cdf6c001bdaedc0a615b40484cdc3",
        "to": "0x8f8661038c85634619b668d2c747b96e32f104cb",
        "gas": "0x17205",
        "value": "0x0",
        "input": "0x1b4493aa25f3a13b154835222011dcad2c58f08b85f9961e7527ba4a35c81d067a79aa7c",
        "nonce": "0x1f4",
        "chainId": "0xaa36a7"
      },
      "additionalContracts": [],
      "isFixedGasLimit": false
    }
  ],
  "receipts": [
    {
      "status": "0x1",
      "cumulativeGasUsed": "0x26869af",
      "logs": [
        {
          "address": "0x8f8661038c85634619b668d2c747b96e32f104cb",
          "topics": [
            "0x41f97fc03cf7f2c1829da0c368b4c948bb17a3c760dd35510feed443faaa7040",
            "0x25f3a13b154835222011dcad2c58f08b85f9961e7527ba4a35c81d067a79aa7c",
            "0x000000000000000000000000e69bb031877cdf6c001bdaedc0a615b40484cdc3"
          ],
          "data": "0x000000000000000000000000000000000000000000000000002386f26fc10000",
          "blockHash": "0x36c9bf28e8e55fcdfa194e3fc6cc944826350e6c6a0b9cc9031fe4f73f1b3ebd",
          "blockNumber": "0x977630",
          "blockTimestamp": "0x69501288",
          "transactionHash": "0xe25b529e011b5bf88ab1b2462113ef862cdb15275c7685751dfaf9c227acdda8",
          "transactionIndex": "0x40",
          "logIndex": "0x12d",
          "removed": false
        },
        {
          "address": "0x8f8661038c85634619b668d2c747b96e32f104cb",
          "topics": [
            "0x64278aae6fae503a884e44cf5d9094c515693b6dd2853e44b4555809f7c8dba4",
            "0x25f3a13b154835222011dcad2c58f08b85f9961e7527ba4a35c81d067a79aa7c",
            "0x000000000000000000000000e69bb031877cdf6c001bdaedc0a615b40484cdc3"
          ],
          "data": "0x000000000000000000000000000000000000000000000000002386f26fc10000000000000000000000000000000000000000000000000000002386f26fc100000000000000000000000000000000000000000000000000000000000000000000",
          "blockHash": "0x36c9bf28e8e55fcdfa194e3fc6cc944826350e6c6a0b9cc9031fe4f73f1b3ebd",
          "blockNumber": "0x977630",
          "blockTimestamp": "0x69501288",
          "transactionHash": "0xe25b529e011b5bf88ab1b2462113ef862cdb15275c7685751dfaf9c227acdda8",
          "transactionIndex": "0x40",
          "logIndex": "0x12e",
          "removed": false
        }
      ],
      "logsBloom": "0x00000000000000000000000000000000040000000000010000000000000000000000000080000000000000000000000001000040000000000000000000000000000000000000000000000000000004000000000080000000000000000000100000000000000000008000000000000000000000000000000000000000080000000000000000000000000000000000000000000000020000000000000000000000000000001000000000000000000000000000000800000000000000000000000000000000000000000002000000000000000000000000000000000000000000000000000000000000000000000000000000000000000000000000000000040000",
      "type": "0x2",
      "transactionHash": "0xe25b529e011b5bf88ab1b2462113ef862cdb15275c7685751dfaf9c227acdda8",
      "transactionIndex": "0x40",
      "blockHash": "0x36c9bf28e8e55fcdfa194e3fc6cc944826350e6c6a0b9cc9031fe4f73f1b3ebd",
      "blockNumber": "0x977630",
      "gasUsed": "0x10be4",
      "effectiveGasPrice": "0x1484e8e",
      "from": "0xe69bb031877cdf6c001bdaedc0a615b40484cdc3",
      "to": "0x8f8661038c85634619b668d2c747b96e32f104cb",
      "contractAddress": null
    }
  ],
  "libraries": [],
  "pending": [],
  "returns": {},
  "timestamp": 1766855306475,
  "chain": 11155111,
  "commit": "d633774"
}