{
  "transactions": [
    {
      "hash": "0x11164b1034f8461c52bb8afac606b8d0cc57a2215f2b5872f62eb651df0d33cb",
      "transactionType": "CALL",
      "contractName": null,
      "contractAddress": "0xe93b8129dc3dbd48e5d78c5a4c156dd1bfa8d65b",
      "function": "lock(bytes32)",
      "arguments": [
        "0x2320239f8c93bf13412af36c62d049a074bab26e549b6b58d183b74ff63b4df8"
      ],
      "transaction": {
        "from": "0xe69bb031877cdf6c001bdaedc0a615b40484cdc3",
        "to": "0xe93b8129dc3dbd48e5d78c5a4c156dd1bfa8d65b",
        "gas": "0x39bab",
        "value": "0x5af3107a4000",
        "input": "0x01670ba92320239f8c93bf13412af36c62d049a074bab26e549b6b58d183b74ff63b4df8",
        "nonce": "0x1f",
        "chainId": "0xaa37dc"
      },
      "additionalContracts": [],
      "isFixedGasLimit": false
    }
  ],
  "receipts": [
    {
      "status": "0x1",
      "cumulativeGasUsed": "0xaf996",
      "logs": [
        {
          "address": "0xe93b8129dc3dbd48e5d78c5a4c156dd1bfa8d65b",
          "topics": [
            "0x90b4652709ecf95c465dbc53abc979fad77829d2ccc7fe10e6e0815f9b4f3038",
            "0xdc543828e0cc015f0125494aa90d2efff5f3afad6713a7187db654ae715c4f13",
            "0x000000000000000000000000e69bb031877cdf6c001bdaedc0a615b40484cdc3"
          ],
          "data": "0x00000000000000000000000000000000000000000000000000005af3107a40002320239f8c93bf13412af36c62d049a074bab26e549b6b58d183b74ff63b4df80000000000000000000000000000000000000000000000000000000000000000",
          "blockHash": "0x3255a3cb1341f68a5a3aacfdcb0711dfc5c9a934f2b4f802129078f4115c2ca5",
          "blockNumber": "0x235f003",
          "blockTimestamp": "0x6942bbb2",
          "transactionHash": "0x11164b1034f8461c52bb8afac606b8d0cc57a2215f2b5872f62eb651df0d33cb",
          "transactionIndex": "0x4",
          "logIndex": "0xa",
          "removed": false
        }
      ],
      "logsBloom": "0x00000000000004000000000000000000000000000000000000000000000000000000000080001001000000000000000000000000000000000000000000000000000000000000000000000000000000000000000000000000200000000000000000000000000000008000000000000000000000000000000000000000000000000000000000000000000000000000000000000000000000000000000000000000000000000000000000000000000000000000000800000000000000000000000000000000000000000000000000000000200000000000000000000000000080800000000000000000000000000000000008000000000001000000000000000000",
      "type": "0x2",
      "transactionHash": "0x11164b1034f8461c52bb8afac606b8d0cc57a2215f2b5872f62eb651df0d33cb",
      "transactionIndex": "0x4",
      "blockHash": "0x3255a3cb1341f68a5a3aacfdcb0711dfc5c9a934f2b4f802129078f4115c2ca5",
      "blockNumber": "0x235f003",
      "gasUsed": "0x27792",
      "effectiveGasPrice": "0xf433a",
      "blobGasUsed": "0x9c40",
      "from": "0xe69bb031877cdf6c001bdaedc0a615b40484cdc3",
      "to": "0xe93b8129dc3dbd48e5d78c5a4c156dd1bfa8d65b",
      "contractAddress": null,
      "daFootprintGasScalar": "0x190",
      "l1BaseFeeScalar": "0x1db0",
      "l1BlobBaseFee": "0x8a5aea6",
      "l1BlobBaseFeeScalar": "0xd2730",
      "l1Fee": "0x95efaea0a",
      "l1GasPrice": "0x87fc759e",
      "l1GasUsed": "0x640"
    }
  ],
  "libraries": [],
  "pending": [],
  "returns": {},
  "timestamp": 1765981106170,
  "chain": 11155420,
  "commit": "aae7fce"
}