{
  "transactions": [
    {
      "hash": "0xe6c3e84e23e8e3a9b8fd96a61f066d1b56fe1b35c001bfe5f69d86137854d8b5",
      "transactionType": "CALL",
      "contractName": null,
      "contractAddress": "0x43af0a4b58cc3f040ef05746e72021de6d35115b",
      "function": "lockWithExpiry(address,bytes,uint256)",
      "arguments": [
        "0xe69BB031877Cdf6c001BdAEDC0A615B40484CDC3",
        "0xdeadbeefdeadbeefdeadbeefdeadbeefdeadbeefdeadbeefdeadbeefdeadbeef",
        "1772006280"
      ],
      "transaction": {
        "from": "0xe69bb031877cdf6c001bdaedc0a615b40484cdc3",
        "to": "0x43af0a4b58cc3f040ef05746e72021de6d35115b",
        "gas": "0x4c4227",
        "value": "0x2386f26fc10000",
        "input": "0x4157e049000000000000000000000000e69bb031877cdf6c001bdaedc0a615b40484cdc3000000000000000000000000000000000000000000000000000000000000006000000000000000000000000000000000000000000000000000000000699eab880000000000000000000000000000000000000000000000000000000000000020deadbeefdeadbeefdeadbeefdeadbeefdeadbeefdeadbeefdeadbeefdeadbeef",
        "nonce": "0x225",
        "chainId": "0xaa36a7"
      },
      "additionalContracts": [],
      "isFixedGasLimit": false
    }
  ],
  "receipts": [
    {
      "status": "0x1",
      "cumulativeGasUsed": "0x297e521",
      "logs": [
        {
          "address": "0x43af0a4b58cc3f040ef05746e72021de6d35115b",
          "topics": [
            "0x7ea6a10ee887144d0680d547987ce45166d4fb495877d46fdd000ff01767b99c",
            "0x17bd4eec0ac49560370868da7216eb649dc7863c637f373695987059868fe30e",
            "0x000000000000000000000000e69bb031877cdf6c001bdaedc0a615b40484cdc3",
            "0x000000000000000000000000e69bb031877cdf6c001bdaedc0a615b40484cdc3"
          ],
          "data": "0x000000000000000000000000000000000000000000000000002386f26fc100004b5b820faf34be5fb20d86b06814405f676cbb64c1aa3cf35112bb20631341b0ea21b3005795c9ea042aedf6b380e390dd416af8e70626253eff01380383ce59",
          "blockHash": "0x5872f97b36bca4325a648f387bc7a99d9c187be7d3a3206f875b2798225ca04f",
          "blockNumber": "0x9d8f0d",
          "blockTimestamp": "0x699d5a5c",
          "transactionHash": "0xe6c3e84e23e8e3a9b8fd96a61f066d1b56fe1b35c001bfe5f69d86137854d8b5",
          "transactionIndex": "0xbc",
          "logIndex": "0x1f6",
          "removed": false
        }
      ],
      "logsBloom": "0x00000000000000000000000000000000000000000000000000000002000000000000000080000000000000000000000000000000000000000000000800000000000000000000000000000000100000000000000000000000000000000000000000000000000000008008000000000000000000000000000000000000000000000000000000000000000000000000000000000000000000000000000000000000000000000000000000000000000000000000000800000000000800000000004000000000000000000000000000000000000000000000000000000000000000000000000000000000000000000000000000400000000000000000080000000001",
      "type": "0x2",
      "transactionHash": "0xe6c3e84e23e8e3a9b8fd96a61f066d1b56fe1b35c001bfe5f69d86137854d8b5",
      "transactionIndex": "0xbc",
      "blockHash": "0x5872f97b36bca4325a648f387bc7a99d9c187be7d3a3206f875b2798225ca04f",
      "blockNumber": "0x9d8f0d",
      "gasUsed": "0x3735b0",
      "effectiveGasPrice": "0xf4271",
      "from": "0xe69bb031877cdf6c001bdaedc0a615b40484cdc3",
      "to": "0x43af0a4b58cc3f040ef05746e72021de6d35115b",
      "contractAddress": null
    }
  ],
  "libraries": [],
  "pending": [],
  "returns": {},
  "timestamp": 1771919965224,
  "chain": 11155111,
  "commit": "04c40acd"
}