{
  "transactions": [
    {
      "hash": "0x1a4c4b821f60cbcf16a47b6de1760bf2d9754076d83aaa0842f4e0e3b9e211bb",
      "transactionType": "CALL",
      "contractName": null,
      "contractAddress": "0xe7f1725e7734ce288f8367e1bb143e90bb3f0512",
      "function": "lock(bytes32)",
      "arguments": [
        "0xa61b7f802a4279851c8b86fa4440c849f4d98faa412543c7b65b321add476b14"
      ],
      "transaction": {
        "from": "0xf39fd6e51aad88f6f4ce6ab8827279cfffb92266",
        "to": "0xe7f1725e7734ce288f8367e1bb143e90bb3f0512",
        "gas": "0x2d84a",
        "value": "0x38d7ea4c68000",
        "input": "0x01670ba9a61b7f802a4279851c8b86fa4440c849f4d98faa412543c7b65b321add476b14",
        "nonce": "0x3",
        "chainId": "0xaa36a7"
      },
      "additionalContracts": [],
      "isFixedGasLimit": false
    },
    {
      "hash": "0x1d28e0288964f938eabed59ec081154c18ecd33f053dacb51a58195169a1b537",
      "transactionType": "CALL",
      "contractName": null,
      "contractAddress": "0xe7f1725e7734ce288f8367e1bb143e90bb3f0512",
      "function": "release(bytes,uint256[])",
      "arguments": [
        "0x0102030405060708090a0b0c0d0e0f101112131415161718191a1b1c1d1e1f202122232425262728292a2b2c2d2e2f303132333435363738393a3b3c3d3e3f404142434445464748494a4b4c4d4e4f505152535455565758595a5b5c5d5e5f606162636465666768696a6b6c6d6e6f707172737475767778797a7b7c7d7e7f808182838485868788898a8b8c8d8e8f909192939495969798999a9b9c9d9e9fa0a1a2a3a4a5a6a7a8a9aaabacadaeafb0b1b2b3b4b5b6b7b8b9babbbcbdbebfc0c1c2c3c4c5c6c7c8c9cacbcccdcecfd0d1d2d3d4d5d6d7d8d9dadbdcdddedfe0e1e2e3e4e5e6e7e8e9eaebecedeeeff0f1f2f3f4f5f6f7f8f9fafbfcfdfeff00",
        "[325461273263344056174037800881001818900, 220794625335779674214390682188647549001, 1, 165876303684614821735614937893883789156, 123379779641569301967536493948058941292, 137122462167341575662000267002353578582749290296, 1000000000000000, 0]"
      ],
      "transaction": {
        "from": "0xf39fd6e51aad88f6f4ce6ab8827279cfffb92266",
        "to": "0xe7f1725e7734ce288f8367e1bb143e90bb3f0512",
        "gas": "0x2bd3a",
        "value": "0x0",
        "input": "0x5ca491a20000000000000000000000000000000000000000000000000000000000000040000000000000000000000000000000000000000000000000000000000000016000000000000000000000000000000000000000000000000000000000000001000102030405060708090a0b0c0d0e0f101112131415161718191a1b1c1d1e1f202122232425262728292a2b2c2d2e2f303132333435363738393a3b3c3d3e3f404142434445464748494a4b4c4d4e4f505152535455565758595a5b5c5d5e5f606162636465666768696a6b6c6d6e6f707172737475767778797a7b7c7d7e7f808182838485868788898a8b8c8d8e8f909192939495969798999a9b9c9d9e9fa0a1a2a3a4a5a6a7a8a9aaabacadaeafb0b1b2b3b4b5b6b7b8b9babbbcbdbebfc0c1c2c3c4c5c6c7c8c9cacbcccdcecfd0d1d2d3d4d5d6d7d8d9dadbdcdddedfe0e1e2e3e4e5e6e7e8e9eaebecedeeeff0f1f2f3f4f5f6f7f8f9fafbfcfdfeff00000000000000000000000000000000000000000000000000000000000000000800000000000000000000000000000000f4d98faa412543c7b65b321add476b1400000000000000000000000000000000a61b7f802a4279851c8b86fa4440c8490000000000000000000000000000000000000000000000000000000000000001000000000000000000000000000000007cca9d31450fbad23d5c5497f91abf64000000000000000000000000000000005cd214ca76dade563a8335a5cc0f376c0000000000000000000000001804c8ab1f12e6bbf3894d4083f33e07309d1f3800000000000000000000000000000000000000000000000000038d7ea4c680000000000000000000000000000000000000000000000000000000000000000000",
        "nonce": "0x4",
        "chainId": "0xaa36a7"
      },
      "additionalContracts": [],
      "isFixedGasLimit": false
    }
  ],
  "receipts": [
    {
      "status": "0x1",
      "cumulativeGasUsed": "0x1f1fa",
      "logs": [
        {
          "address": "0xe7f1725e7734ce288f8367e1bb143e90bb3f0512",
          "topics": [
            "0x90b4652709ecf95c465dbc53abc979fad77829d2ccc7fe10e6e0815f9b4f3038",
            "0x1cbfad99f7e57a16cc2a674f1261724d94276d864b460a03cba899d841dd077e",
            "0x000000000000000000000000f39fd6e51aad88f6f4ce6ab8827279cfffb92266"
          ],
          "data": "0x00000000000000000000000000000000000000000000000000038d7ea4c68000a61b7f802a4279851c8b86fa4440c849f4d98faa412543c7b65b321add476b140000000000000000000000000000000000000000000000000000000000000001",
          "blockHash": "0x5759e885da5114be47aec11f62e12d4b9c3f9e27ea5957033ab860b2bce668b8",
          "blockNumber": "0x3",
          "blockTimestamp": "0x6942abbf",
          "transactionHash": "0x1a4c4b821f60cbcf16a47b6de1760bf2d9754076d83aaa0842f4e0e3b9e211bb",
          "transactionIndex": "0x0",
          "logIndex": "0x0",
          "removed": false
        }
      ],
      "logsBloom": "0x00000000000004000000000000000000000000000000000000000000000000000000000000000000000000000000000010000000000000000000000000000000000000000000000000000000000000000000000000000000200000000000000000000000000000000000000100000000000000000000000000000040000000000000000000000000000000000000000000000000000000000000000000000000000000000000000000000000000000000000000000000000000000000000000000000000000000200000000000001000200000002000000000000040000000000000000000000000000000000000000000000000000000800080000000000000",
      "type": "0x2",
      "transactionHash": "0x1a4c4b821f60cbcf16a47b6de1760bf2d9754076d83aaa0842f4e0e3b9e211bb",
      "transactionIndex": "0x0",
      "blockHash": "0x5759e885da5114be47aec11f62e12d4b9c3f9e27ea5957033ab860b2bce668b8",
      "blockNumber": "0x3",
      "gasUsed": "0x1f1fa",
      "effectiveGasPrice": "0x2e207cea",
      "blobGasPrice": "0x1",
      "from": "0xf39fd6e51aad88f6f4ce6ab8827279cfffb92266",
      "to": "0xe7f1725e7734ce288f8367e1bb143e90bb3f0512",
      "contractAddress": null
    }
  ],
  "libraries": [],
  "pending": [],
  "returns": {},
  "timestamp": 1765977023081,
  "chain": 11155111,
  "commit": "aae7fce"
}