{
  "transactions": [
    {
      "hash": "0xa13f3e8892ddd727dd01876226ab36b100ccb0193efffaa34c790fcc47873ebf",
      "transactionType": "CALL",
      "contractName": null,
      "contractAddress": "0xe7f1725e7734ce288f8367e1bb143e90bb3f0512",
      "function": "lock(bytes32)",
      "arguments": [
        "0x62760b90c1f5f05746b461545d8b7e3d4ff56ff77b2ab4fc32cc467abb179b28"
      ],
      "transaction": {
        "from": "0xf39fd6e51aad88f6f4ce6ab8827279cfffb92266",
        "to": "0xe7f1725e7734ce288f8367e1bb143e90bb3f0512",
        "gas": "0x39bab",
        "value": "0x38d7ea4c68000",
        "input": "0x01670ba962760b90c1f5f05746b461545d8b7e3d4ff56ff77b2ab4fc32cc467abb179b28",
        "nonce": "0x2",
        "chainId": "0xaa36a7"
      },
      "additionalContracts": [],
      "isFixedGasLimit": false
    }
  ],
  "receipts": [
    {
      "status": "0x1",
      "cumulativeGasUsed": "0x27792",
      "logs": [
        {
          "address": "0xe7f1725e7734ce288f8367e1bb143e90bb3f0512",
          "topics": [
            "0x90b4652709ecf95c465dbc53abc979fad77829d2ccc7fe10e6e0815f9b4f3038",
            "0x8532697ac43e7149a7622e66f9b6f82584a6a3402b138b6e2abdca2c02ffdda1",
            "0x000000000000000000000000f39fd6e51aad88f6f4ce6ab8827279cfffb92266"
          ],
          "data": "0x00000000000000000000000000000000000000000000000000038d7ea4c6800062760b90c1f5f05746b461545d8b7e3d4ff56ff77b2ab4fc32cc467abb179b280000000000000000000000000000000000000000000000000000000000000000",
          "blockHash": "0x24eb263abb00835e8bdceff7d98d633d022527484ebf2c11e9b9500556cf42fb",
          "blockNumber": "0x2",
          "blockTimestamp": "0x6942abb3",
          "transactionHash": "0xa13f3e8892ddd727dd01876226ab36b100ccb0193efffaa34c790fcc47873ebf",
          "transactionIndex": "0x0",
          "logIndex": "0x0",
          "removed": false
        }
      ],
      "logsBloom": "0x00000000000004000000000000000000000000000000000000000000000000000000000000000000000000000000000010000000040000000000000000000080000000000000000000000000000000000000000000000000200000000000000000000000000000000000000100000000000000000000000000000000000000000000000000000000000000000000000000000000000000000000000000000000000000000000000000000000000000000000000000000000000000000000000000000000000000200000000000001000200000002000000000000000000040000000000000000000000000000000000000000000000000800000000000000000",
      "type": "0x2",
      "transactionHash": "0xa13f3e8892ddd727dd01876226ab36b100ccb0193efffaa34c790fcc47873ebf",
      "transactionIndex": "0x0",
      "blockHash": "0x24eb263abb00835e8bdceff7d98d633d022527484ebf2c11e9b9500556cf42fb",
      "blockNumber": "0x2",
      "gasUsed": "0x27792",
      "effectiveGasPrice": "0x34a2aa86",
      "blobGasPrice": "0x1",
      "from": "0xf39fd6e51aad88f6f4ce6ab8827279cfffb92266",
      "to": "0xe7f1725e7734ce288f8367e1bb143e90bb3f0512",
      "contractAddress": null
    }
  ],
  "libraries": [],
  "pending": [],
  "returns": {},
  "timestamp": 1765977011984,
  "chain": 11155111,
  "commit": "aae7fce"
}