{
  "transactions": [
    {
      "hash": "0x22b33facce0e2ea33b92d4a93b00b2a30f95aa81c6ad00e89fceac2dc2e87b5a",
      "transactionType": "CALL",
      "contractName": null,
      "contractAddress": "0x32aec14aa82b7f8a5d85df04c16418a957e958b6",
      "function": "lock(bytes32)",
      "arguments": [
        "0x62760b90c1f5f05746b461545d8b7e3d4ff56ff77b2ab4fc32cc467abb179b28"
      ],
      "transaction": {
        "from": "0xe69bb031877cdf6c001bdaedc0a615b40484cdc3",
        "to": "0x32aec14aa82b7f8a5d85df04c16418a957e958b6",
        "gas": "0x39bab",
        "value": "0x38d7ea4c68000",
        "input": "0x01670ba962760b90c1f5f05746b461545d8b7e3d4ff56ff77b2ab4fc32cc467abb179b28",
        "nonce": "0x1d5",
        "chainId": "0xaa36a7"
      },
      "additionalContracts": [],
      "isFixedGasLimit": false
    }
  ],
  "receipts": [
    {
      "status": "0x1",
      "cumulativeGasUsed": "0x11b7b45",
      "logs": [
        {
          "address": "0x32aec14aa82b7f8a5d85df04c16418a957e958b6",
          "topics": [
            "0x90b4652709ecf95c465dbc53abc979fad77829d2ccc7fe10e6e0815f9b4f3038",
            "0x746a03a0f5d75dfbb73c1a5ddef4b7d56866ad4c8c2aced5a1a2288d1b1cb605",
            "0x000000000000000000000000e69bb031877cdf6c001bdaedc0a615b40484cdc3"
          ],
          "data": "0x00000000000000000000000000000000000000000000000000038d7ea4c6800062760b90c1f5f05746b461545d8b7e3d4ff56ff77b2ab4fc32cc467abb179b280000000000000000000000000000000000000000000000000000000000000000",
          "blockHash": "0x363dea3da442c944ae0a147eac9d634146e579960fa997e42f5f008cd47da50a",
          "blockNumber": "0x9674b5",
          "blockTimestamp": "0x6942bb44",
          "transactionHash": "0x22b33facce0e2ea33b92d4a93b00b2a30f95aa81c6ad00e89fceac2dc2e87b5a",
          "transactionIndex": "0x46",
          "logIndex": "0x26b",
          "removed": false
        }
      ],
      "logsBloom": "0x00000000000004000000000000000000000000000010000000000000000000000000020080000000000000000000000000000000000000000000000000000000000000000000000000000000000100000010000000000000200000000000000000000000000000008000000000000000000000000000000000000000000000000000000000100000000000000000000000000000000000000000000000000000000000000000000000010000000000000000000800000000000000000000000000000000000000000000000000000000200000000000000000000000000000000000000000000000000000000000000000000000000000000000000000000000",
      "type": "0x2",
      "transactionHash": "0x22b33facce0e2ea33b92d4a93b00b2a30f95aa81c6ad00e89fceac2dc2e87b5a",
      "transactionIndex": "0x46",
      "blockHash": "0x363dea3da442c944ae0a147eac9d634146e579960fa997e42f5f008cd47da50a",
      "blockNumber": "0x9674b5",
      "gasUsed": "0x27792",
      "effectiveGasPrice": "0x955dd8f0",
      "from": "0xe69bb031877cdf6c001bdaedc0a615b40484cdc3",
      "to": "0x32aec14aa82b7f8a5d85df04c16418a957e958b6",
      "contractAddress": null
    }
  ],
  "libraries": [],
  "pending": [],
  "returns": {},
  "timestamp": 1765980997521,
  "chain": 11155111,
  "commit": "aae7fce"
}