{
  "transactions": [
    {
      "hash": "0x26fa42fce65a53839dfa6c9826f45a3ac54c2da5a523d284c0a95d33472040b4",
      "transactionType": "CALL",
      "contractName": null,
      "contractAddress": "0x8f8661038c85634619b668d2c747b96e32f104cb",
      "function": "lock(address,bytes)",
      "arguments": [
        "0xe69BB031877Cdf6c001BdAEDC0A615B40484CDC3",
        "0x0102030405060708090a0b0c0d0e0f101112131415161718191a1b1c1d1e1f202122232425262728292a2b2c2d2e2f303132"
      ],
      "transaction": {
        "from": "0xe69bb031877cdf6c001bdaedc0a615b40484cdc3",
        "to": "0x8f8661038c85634619b668d2c747b96e32f104cb",
        "gas": "0x4f3ed9",
        "value": "0x2386f26fc10000",
        "input": "0x9ca17998000000000000000000000000e69bb031877cdf6c001bdaedc0a615b40484cdc3000000000000000000000000000000000000000000000000000000000000004000000000000000000000000000000000000000000000000000000000000000320102030405060708090a0b0c0d0e0f101112131415161718191a1b1c1d1e1f202122232425262728292a2b2c2d2e2f3031320000000000000000000000000000",
        "nonce": "0x1f2",
        "chainId": "0xaa36a7"
      },
      "additionalContracts": [],
      "isFixedGasLimit": false
    }
  ],
  "receipts": [
    {
      "status": "0x1",
      "cumulativeGasUsed": "0xb7808c",
      "logs": [
        {
          "address": "0x8f8661038c85634619b668d2c747b96e32f104cb",
          "topics": [
            "0x7ea6a10ee887144d0680d547987ce45166d4fb495877d46fdd000ff01767b99c",
            "0x25f3a13b154835222011dcad2c58f08b85f9961e7527ba4a35c81d067a79aa7c",
            "0x000000000000000000000000e69bb031877cdf6c001bdaedc0a615b40484cdc3",
            "0x000000000000000000000000e69bb031877cdf6c001bdaedc0a615b40484cdc3"
          ],
          "data": "0x000000000000000000000000000000000000000000000000002386f26fc10000c9e718d29bb0a146ba2c19da3dec271576efd1285295172baf40245eb0588a45442e07bf71a20a4a6a49d97de6af4c48e55fe208d970a35f0b9b7b345762a72a",
          "blockHash": "0x7a9202350402d61f00b9ba29815a57a459451f521d239c2b52bc85f8fac2f9fa",
          "blockNumber": "0x9775de",
          "blockTimestamp": "0x69500e5c",
          "transactionHash": "0x26fa42fce65a53839dfa6c9826f45a3ac54c2da5a523d284c0a95d33472040b4",
          "transactionIndex": "0x38",
          "logIndex": "0xc8",
          "removed": false
        }
      ],
      "logsBloom": "0x00000000000000000000000000000000000000000000010000000000000000000000000080000000000000000000000000000000000000000000000800000000000000000000000000000000000004000000000000000000000000000000100000000000000000008000000000000000000000000000000000000000080000000000000000000000000000000000000000000000020000000000000000000000000000000000000000000000000000000000000800000000000000000000004000000000000000000002000000000000000000000000000000000000000000000000000000000000000000000000000000000000000000000000000000000001",
      "type": "0x2",
      "transactionHash": "0x26fa42fce65a53839dfa6c9826f45a3ac54c2da5a523d284c0a95d33472040b4",
      "transactionIndex": "0x38",
      "blockHash": "0x7a9202350402d61f00b9ba29815a57a459451f521d239c2b52bc85f8fac2f9fa",
      "blockNumber": "0x9775de",
      "gasUsed": "0x362f5a",
      "effectiveGasPrice": "0x15bbc83",
      "from": "0xe69bb031877cdf6c001bdaedc0a615b40484cdc3",
      "to": "0x8f8661038c85634619b668d2c747b96e32f104cb",
      "contractAddress": null
    }
  ],
  "libraries": [],
  "pending": [],
  "returns": {},
  "timestamp": 1766854238677,
  "chain": 11155111,
  "commit": "d633774"
}