{
  "transactions": [
    {
      "hash": "0x720976acaeb1a5341f615ebc1fba898d0b192426a040ad4d2b3f37980fb8aa96",
      "transactionType": "CREATE",
      "contractName": "AlwaysTrueVerifier",
      "contractAddress": "0x2aa0642f8afb3baecb03f18d49430dcba6b665cb",
      "function": null,
      "arguments": null,
      "transaction": {
        "from": "0xe69bb031877cdf6c001bdaedc0a615b40484cdc3",
        "gas": "0x34bdb",
        "value": "0x0",
        "input": "0x608080604052346100165761020a908161001b8239f35b5f80fdfe608060408181526004361015610013575f80fd5b5f91823560e01c9081631e8e1e1314610148575080633521162b146100a25780636f173079146100885763937f6a101461004b575f80fd5b34610084578160031936011261008457602090517febfc3f7b607a372ec03dffc3e1a7453e5c0f659d4ee5cfcba736c7082037ee4a8152f35b5080fd5b503461008457816003193601126100845751908152602090f35b5034610084578160031936011261008457805181810181811067ffffffffffffffff82111761013457825260128152602090717265736375652d616c776179732d7472756560701b8282015282519382859384528251928382860152825b84811061011e57505050828201840152601f01601f19168101030190f35b8181018301518882018801528795508201610100565b634e487b7160e01b84526041600452602484fd5b919050346101cc573660031901126100845767ffffffffffffffff6004358181116101c857366023820112156101c85780600401358281116101d057369101602401116101cc576024358181116101c857366023820112156101c85780600401359182116101c857602490369260051b0101116100845780600160209252f35b8380fd5b8280fd5b8480fdfea2646970667358221220e579b511e780868efd2134362acf69783a0c20a75033688847eb6599976178f164736f6c63430008140033",
        "nonce": "0x1d6",
        "chainId": "0xaa36a7"
      },
      "additionalContracts": [],
      "isFixedGasLimit": false
    },
    {
      "hash": "0x8965b97cd5f268dbeaa03c9d226f32ec9e60b980189cf28b4a5c9e28d31b5948",
      "transactionType": "CALL",
      "contractName": null,
      "contractAddress": "0x32aec14aa82b7f8a5d85df04c16418a957e958b6",
      "function": "updateVerifier(address)",
      "arguments": [
        "0x2AA0642f8AFB3BAECb03F18d49430Dcba6b665cb"
      ],
      "transaction": {
        "from": "0xe69bb031877cdf6c001bdaedc0a615b40484cdc3",
        "to": "0x32aec14aa82b7f8a5d85df04c16418a957e958b6",
        "gas": "0xbf2b",
        "value": "0x0",
        "input": "0x97fc007c0000000000000000000000002aa0642f8afb3baecb03f18d49430dcba6b665cb",
        "nonce": "0x1d7",
        "chainId": "0xaa36a7"
      },
      "additionalContracts": [],
      "isFixedGasLimit": false
    }
  ],
  "receipts": [
    {
      "status": "0x1",
      "cumulativeGasUsed": "0x16f71f3",
      "logs": [],
      "logsBloom": "0x00000000000000000000000000000000000000000000000000000000000000000000000000000000000000000000000000000000000000000000000000000000000000000000000000000000000000000000000000000000000000000000000000000000000000000000000000000000000000000000000000000000000000000000000000000000000000000000000000000000000000000000000000000000000000000000000000000000000000000000000000000000000000000000000000000000000000000000000000000000000000000000000000000000000000000000000000000000000000000000000000000000000000000000000000000000",
      "type": "0x2",
      "transactionHash": "0x8965b97cd5f268dbeaa03c9d226f32ec9e60b980189cf28b4a5c9e28d31b5948",
      "transactionIndex": "0x55",
      "blockHash": "0x74dd2815fb5401deb708fd1d6d3fe3abd3e625631f6f0649fdac61a700668ea9",
      "blockNumber": "0x96863a",
      "gasUsed": "0x2891f",
      "effectiveGasPrice": "0x122ca0",
      "from": "0xe69bb031877cdf6c001bdaedc0a615b40484cdc3",
      "to": null,
      "contractAddress": "0x2aa0642f8afb3baecb03f18d49430dcba6b665cb"
    },
    {
      "status": "0x1",
      "cumulativeGasUsed": "0x16ffc5b",
      "logs": [
        {
          "address": "0x32aec14aa82b7f8a5d85df04c16418a957e958b6",
          "topics": [
            "0x64943283afbc12c04b0642341aa837bfcd2db1f1dd1c8ff81f0893cfb7345b53",
            "0x000000000000000000000000f0f990c2b2f5aa803485289e7140e45b7831a844",
            "0x0000000000000000000000002aa0642f8afb3baecb03f18d49430dcba6b665cb"
          ],
          "data": "0x000000000000000000000000000000000000000000000000000000000000002000000000000000000000000000000000000000000000000000000000000000127265736375652d616c776179732d747275650000000000000000000000000000",
          "blockHash": "0x74dd2815fb5401deb708fd1d6d3fe3abd3e625631f6f0649fdac61a700668ea9",
          "blockNumber": "0x96863a",
          "blockTimestamp": "0x69439cc8",
          "transactionHash": "0x720976acaeb1a5341f615ebc1fba898d0b192426a040ad4d2b3f37980fb8aa96",
          "transactionIndex": "0x56",
          "logIndex": "0x39b",
          "removed": false
        }
      ],
      "logsBloom": "0x00000002000000000000000000000000000000000000000000000000001000000000020000000000000000000000000000000000000000000000000000000000000000000000000000400000002100000000000000000000000000000000000000000000000000000000000000000000000002000000000000000000000000000000004000000000000000000000000000000000000000010000040000000000000000000000000000010000000000000000000000000000000000000000000000000000000000000000000000000000000000000000000000000000000000000000000000000000000000000000000000008000000000000000000000000000",
      "type": "0x2",
      "transactionHash": "0x720976acaeb1a5341f615ebc1fba898d0b192426a040ad4d2b3f37980fb8aa96",
      "transactionIndex": "0x56",
      "blockHash": "0x74dd2815fb5401deb708fd1d6d3fe3abd3e625631f6f0649fdac61a700668ea9",
      "blockNumber": "0x96863a",
      "gasUsed": "0x8a68",
      "effectiveGasPrice": "0x122ca0",
      "from": "0xe69bb031877cdf6c001bdaedc0a615b40484cdc3",
      "to": "0x32aec14aa82b7f8a5d85df04c16418a957e958b6",
      "contractAddress": null
    }
  ],
  "libraries": [],
  "pending": [],
  "returns": {},
  "timestamp": 1766038729080,
  "chain": 11155111,
  "commit": "aae7fce"
}