{
  "transactions": [
    {
      "hash": "0x38d661162e8fcacd9be7028ec57aa4a9361ec284a45413a4771c50f0eaa6b159",
      "transactionType": "CALL",
      "contractName": null,
      "contractAddress": "0x8f8661038c85634619b668d2c747b96e32f104cb",
      "function": "requestEmergencyUnlock(bytes32,address)",
      "arguments": [
        "0x25f3a13b154835222011dcad2c58f08b85f9961e7527ba4a35c81d067a79aa7c",
        "0xe69BB031877Cdf6c001BdAEDC0A615B40484CDC3"
      ],
      "transaction": {
        "from": "0xe69bb031877cdf6c001bdaedc0a615b40484cdc3",
        "to": "0x8f8661038c85634619b668d2c747b96e32f104cb",
        "gas": "0x9e915",
        "value": "0x2386f26fc10000",
        "input": "0x49fe43f925f3a13b154835222011dcad2c58f08b85f9961e7527ba4a35c81d067a79aa7c000000000000000000000000e69bb031877cdf6c001bdaedc0a615b40484cdc3",
        "nonce": "0x1f3",
        "chainId": "0xaa36a7"
      },
      "additionalContracts": [],
      "isFixedGasLimit": false
    }
  ],
  "receipts": [
    {
      "status": "0x1",
      "cumulativeGasUsed": "0x104d041",
      "logs": [
        {
          "address": "0x8f8661038c85634619b668d2c747b96e32f104cb",
          "topics": [
            "0x0526967cdd985e39a385e6b9b9ae0ebad6b64ffd03973822e7c95552b5d366b8",
            "0x25f3a13b154835222011dcad2c58f08b85f9961e7527ba4a35c81d067a79aa7c",
            "0x000000000000000000000000e69bb031877cdf6c001bdaedc0a615b40484cdc3"
          ],
          "data": "0x00000000000000000000000000000000000000000000000000000000000000000000000000000000000000000000000000000000000000000000000069500f58",
          "blockHash": "0xf7f03c0802e67b615a918cd1f4f312367e49c452eb11113b4f7c729437fcd704",
          "blockNumber": "0x9775f1",
          "blockTimestamp": "0x69500f58",
          "transactionHash": "0x38d661162e8fcacd9be7028ec57aa4a9361ec284a45413a4771c50f0eaa6b159",
          "transactionIndex": "0x42",
          "logIndex": "0x16a",
          "removed": false
        },
        {
          "address": "0x8f8661038c85634619b668d2c747b96e32f104cb",
          "topics": [
            "0x90c4270e44a5fb2aae404a2820bc3f1b21dadf5d53302a1cb663f1c780c45a7f",
            "0x25f3a13b154835222011dcad2c58f08b85f9961e7527ba4a35c81d067a79aa7c",
            "0x000000000000000000000000e69bb031877cdf6c001bdaedc0a615b40484cdc3"
          ],
          "data": "0x000000000000000000000000000000000000000000000000002386f26fc10000000000000000000000000000000000000000000000000000002386f26fc10000",
          "blockHash": "0xf7f03c0802e67b615a918cd1f4f312367e49c452eb11113b4f7c729437fcd704",
          "blockNumber": "0x9775f1",
          "blockTimestamp": "0x69500f58",
          "transactionHash": "0x38d661162e8fcacd9be7028ec57aa4a9361ec284a45413a4771c50f0eaa6b159",
          "transactionIndex": "0x42",
          "logIndex": "0x16b",
          "removed": false
        },
        {
          "address": "0x8f8661038c85634619b668d2c747b96e32f104cb",
          "topics": [
            "0x7c560948f2e64f84ec7abf478d07b3e697cd2325071507eac90b744bc68bd9dc",
            "0x25f3a13b154835222011dcad2c58f08b85f9961e7527ba4a35c81d067a79aa7c"
          ],
          "data": "0x0000000000000000000000000000000000000000000000000000000069500f58",
          "blockHash": "0xf7f03c0802e67b615a918cd1f4f312367e49c452eb11113b4f7c729437fcd704",
          "blockNumber": "0x9775f1",
          "blockTimestamp": "0x69500f58",
          "transactionHash": "0x38d661162e8fcacd9be7028ec57aa4a9361ec284a45413a4771c50f0eaa6b159",
          "transactionIndex": "0x42",
          "logIndex": "0x16c",
          "removed": false
        },
        {
          "address": "0x8f8661038c85634619b668d2c747b96e32f104cb",
          "topics": [
            "0x7b51d56a0637ca3c56fb857a383c96aa032b059b468f836204af1fefdc9c592b",
            "0x25f3a13b154835222011dcad2c58f08b85f9961e7527ba4a35c81d067a79aa7c",
            "0x000000000000000000000000e69bb031877cdf6c001bdaedc0a615b40484cdc3"
          ],
          "data": "0x000000000000000000000000000000000000000000000000002386f26fc10000000000000000000000000000000000000000000000000000002386f26fc100000000000000000000000000000000000000000000000000000000000069501084",
          "blockHash": "0xf7f03c0802e67b615a918cd1f4f312367e49c452eb11113b4f7c729437fcd704",
          "blockNumber": "0x9775f1",
          "blockTimestamp": "0x69500f58",
          "transactionHash": "0x38d661162e8fcacd9be7028ec57aa4a9361ec284a45413a4771c50f0eaa6b159",
          "transactionIndex": "0x42",
          "logIndex": "0x16d",
          "removed": false
        }
      ],
      "logsBloom": "0x00000000040000000000000000000000000000000000010000001000000000000000000080000000002000000000000000000000004000000000000000000000400000000000000000000000000004000000100040000000000000000000100000000000000000008000000000000000000000000000000000000000080000000000000000200000000000000000000000000000020000000000000000000000000000000000000000000000000000001000000800000000000000000000000000000000000000000002000000010000000000000000000000080000000000000000000000000000000000000000000000000080000000000000000000000000",
      "type": "0x2",
      "transactionHash": "0x38d661162e8fcacd9be7028ec57aa4a9361ec284a45413a4771c50f0eaa6b159",
      "transactionIndex": "0x42",
      "blockHash": "0xf7f03c0802e67b615a918cd1f4f312367e49c452eb11113b4f7c729437fcd704",
      "blockNumber": "0x9775f1",
      "gasUsed": "0x72cce",
      "effectiveGasPrice": "0x151816d",
      "from": "0xe69bb031877cdf6c001bdaedc0a615b40484cdc3",
      "to": "0x8f8661038c85634619b668d2c747b96e32f104cb",
      "contractAddress": null
    }
  ],
  "libraries": [],
  "pending": [],
  "returns": {},
  "timestamp": 1766854490148,
  "chain": 11155111,
  "commit": "d633774"
}